:100000000C9434000C943E000C943E000C943E0082
:100010000C943E000C943E000C943E000C943E0068
:100020000C943E000C943E000C943E000C943E0058
:100030000C943E000C943E000C943E000C943E0048
:100040000C943E000C943E000C943E000C943E0038
:100050000C943E000C943E000C943E000C943E0028
:100060000C943E000C943E0011241FBECFEFD8E04C
:10007000DEBFCDBF0E9440000C947D000C940000B8
:10008000CF93DF9300D0CDB7DEB785E290E0FC01DF
:1000900010821A82198284E290E02FE0FC01208312
:1000A00089E290E0FC018081882F90E08870992798
:1000B000892B59F085E290E0FC013081298185E2AD
:1000C00090E0230FFC012083EBCF89E290E0FC015C
:1000D0008081883029F081E090E09A838983E0CFA5
:1000E00085E290E0FC018081882F90E08F70992755
:0E00F000892BB1F21A821982D3CFF894FFCF78
:00000001FF
