:100000000C9434000C943E000C943E000C943E0082
:100010000C943E000C943E000C943E000C943E0068
:100020000C943E000C943E000C943E000C943E0058
:100030000C943E000C943E000C943E000C943E0048
:100040000C943E000C943E000C943E000C943E0038
:100050000C943E000C943E000C943E000C943E0028
:100060000C943E000C943E0011241FBECFEFD8E04C
:10007000DEBFCDBF0E9440000C9489000C940000AC
:10008000CF93DF93CDB7DEB728970FB6F894DEBFD6
:100090000FBECDBF80E092EEA4E0B0E08D839E83E2
:1000A000AF83B8878D819E81AF81B88589839A831C
:1000B000AB83BC8384E290E0FC01208184E290E089
:1000C0002260FC01208385E290E0FC01308185E222
:1000D00090E022E02327FC012083000089819A819F
:1000E000AB81BC81AC01BD0141505109610971096D
:1000F00049835A836B837C83892B8A2B8B2B71F7E3
:100100008D819E81AF81B88589839A83AB83BC83BF
:06011000D1CFF894FFCFEF
:00000001FF
