:100000000C9434000C943E000C943E000C943E0082
:100010000C943E000C943E000C943E000C943E0068
:100020000C943E000C943E000C943E000C943E0058
:100030000C943E000C943E000C943E000C943E0048
:100040000C943E000C943E000C943E000C943E0038
:100050000C943E000C943E000C943E000C943E0028
:100060000C943E000C943E0011241FBECFEFD8E04C
:10007000DEBFCDBF0E9440000C9466000C940000CF
:10008000CF93DF93CDB7DEB784E290E0FC0120810F
:1000900084E290E02260FC01208381E890E02DE181
:1000A000FC01208380E890E022E8FC01208386E8C0
:1000B00090E028E03DE3FC013183208388E890E074
:1000C0002AE136E0FC0131832083FFCFF894FFCF93
:00000001FF
