:100000000C9434000C943E000C943E000C943E0082
:100010000C943E000C943E000C943E000C943E0068
:100020000C943E000C943E000C943E000C943E0058
:100030000C943E000C943E000C943E000C943E0048
:100040000C943E000C943E000C9479000C943E00FD
:100050000C943E000C943E000C943E000C943E0028
:100060000C943E000C943E0011241FBECFEFD8E04C
:10007000DEBFCDBF0E94CE000C94F7000C940000B0
:10008000CF93DF93CDB7DEB784EC90E027E6FC0199
:10009000208381EC90E028E1FC01208382EC90E059
:1000A00026E0FC0120830000DF91CF910895CF93DB
:1000B000DF930F92CDB7DEB7898386EC90E029817C
:1000C000FC01208300000F90DF91CF910895CF9322
:1000D000DF93CDB7DEB7000080EC90E0FC018081BB
:1000E0008823D4F786EC90E0FC018081DF91CF91EA
:1000F00008951F920F920FB60F9211242F933F93E2
:100100004F935F936F937F938F939F93AF93BF931F
:10011000EF93FF93CF93DF930F92CDB7DEB700003D
:1001200080EC90E0FC018081882F90E0807299271C
:10013000892BB1F386EC90E0FC0180818983898171
:10014000813644F089818B372CF4898180520E945A
:1001500057000FC08981813444F089818B352CF49C
:100160008981805E0E94570004C089810E945700E7
:10017000000000000F90DF91CF91FF91EF91BF91B0
:10018000AF919F918F917F916F915F914F913F912F
:100190002F910F900FBE0F901F901895CF93DF9364
:1001A000CDB7DEB70E94400081EC90E0FC012081D9
:1001B00081EC90E02068FC0120838FE590E0FC0159
:1001C00020818FE590E02068FC012083000080EC16
:1001D00090E0FC018081882F90E080729927892B24
:1001E000B1F386EC90E021E6FC012083EFCFF89498
:0201F000FFCF3F
:00000001FF
