:100000000C9434000C943E000C943E000C943E0082
:100010000C943E000C943E000C943E000C943E0068
:100020000C943E000C943E000C943E000C943E0058
:100030000C943E000C943E000C943E000C943E0048
:100040000C943E000C943E000C943E000C943E0038
:100050000C943E000C943E000C943E000C943E0028
:100060000C943E000C943E0011241FBECFEFD8E04C
:10007000DEBFCDBF0E9440000C9475000C940000C0
:10008000CF93DF93CDB7DEB784E290E0FC0120810F
:1000900084E290E02860FC0120838AE290E0FC0189
:1000A00080818AE290E0FC01108289E290E0FC010C
:1000B0008081882F90E088709927892B29F085E22C
:1000C00090E0FC011082F1CF89E290E0FC01808198
:1000D000883059F385E290E0FC01308185E290E0C0
:0E00E00028E02327FC012083E0CFF894FFCF17
:00000001FF
