:100000000C9434000C943E000C943E000C943E0082
:100010000C943E000C943E000C943E000C943E0068
:100020000C943E000C943E000C943E000C943E0058
:100030000C943E000C943E000C943E000C943E0048
:100040000C943E000C943E000C943E000C943E0038
:100050000C943E000C943E000C943E000C943E0028
:100060000C943E000C943E0011241FBECFEFD8E04C
:10007000DEBFCDBF0E9440000C9484000C940000B1
:10008000CF93DF9300D0CDB7DEB785E290E0FC01DF
:10009000108284E290E0FC01208184E290E02860FC
:1000A000FC0120831A82198289E290E0FC018081A0
:1000B000882F90E088709927892B31F085E290E0B5
:1000C0002981FC012083F0CF89E290E0FC0180814E
:1000D000883059F085E290E0FC018081882329F482
:1000E00088E090E09A8389830EC089E290E0FC0169
:1000F00080818830C9F285E290E0FC0180818830FF
:0C01000099F61A821982D0CFF894FFCF34
:00000001FF
